{
  "contractName": "volunteer",
  "abi": [
    {
      "inputs": [],
      "stateMutability": "nonpayable",
      "type": "constructor"
    },
    {
      "inputs": [],
      "name": "numoffunders",
      "outputs": [
        {
          "internalType": "uint256",
          "name": "",
          "type": "uint256"
        }
      ],
      "stateMutability": "view",
      "type": "function",
      "constant": true
    },
    {
      "inputs": [],
      "name": "owner",
      "outputs": [
        {
          "internalType": "address",
          "name": "",
          "type": "address"
        }
      ],
      "stateMutability": "view",
      "type": "function",
      "constant": true
    },
    {
      "inputs": [],
      "name": "denote",
      "outputs": [],
      "stateMutability": "payable",
      "type": "function",
      "payable": true
    },
    {
      "inputs": [],
      "name": "getContractBalance",
      "outputs": [
        {
          "internalType": "uint256",
          "name": "",
          "type": "uint256"
        }
      ],
      "stateMutability": "view",
      "type": "function",
      "constant": true
    },
    {
      "inputs": [
        {
          "internalType": "uint256",
          "name": "amount",
          "type": "uint256"
        }
      ],
      "name": "withdraw",
      "outputs": [],
      "stateMutability": "nonpayable",
      "type": "function"
    }
  ],
  "bytecode": "0x608060405234801561001057600080fd5b5033600160006101000a81548173ffffffffffffffffffffffffffffffffffffffff021916908373ffffffffffffffffffffffffffffffffffffffff16021790555061064a806100616000396000f3fe60806040526004361061004a5760003560e01c806303c344271461004f5780632e1a7d4d146100595780636f9fb98a146100825780638da5cb5b146100ad578063922ad157146100d8575b600080fd5b610057610103565b005b34801561006557600080fd5b50610080600480360381019061007b91906103b5565b610222565b005b34801561008e57600080fd5b50610097610346565b6040516100a491906103f1565b60405180910390f35b3480156100b957600080fd5b506100c261034e565b6040516100cf919061044d565b60405180910390f35b3480156100e457600080fd5b506100ed610374565b6040516100fa91906103f1565b60405180910390f35b6000339050600360008273ffffffffffffffffffffffffffffffffffffffff1673ffffffffffffffffffffffffffffffffffffffff16815260200190815260200160002060009054906101000a900460ff1661021f57600080600081548092919061016d90610497565b919050559050816002600083815260200190815260200160002060006101000a81548173ffffffffffffffffffffffffffffffffffffffff021916908373ffffffffffffffffffffffffffffffffffffffff1602179055506001600360008473ffffffffffffffffffffffffffffffffffffffff1673ffffffffffffffffffffffffffffffffffffffff16815260200190815260200160002060006101000a81548160ff021916908315150217905550505b50565b600160009054906101000a900473ffffffffffffffffffffffffffffffffffffffff1673ffffffffffffffffffffffffffffffffffffffff163373ffffffffffffffffffffffffffffffffffffffff16146102b2576040517f08c379a00000000000000000000000000000000000000000000000000000000081526004016102a990610562565b60405180910390fd5b66470de4df8200008111156102fc576040517f08c379a00000000000000000000000000000000000000000000000000000000081526004016102f3906105f4565b60405180910390fd5b3373ffffffffffffffffffffffffffffffffffffffff166108fc829081150290604051600060405180830381858888f19350505050158015610342573d6000803e3d6000fd5b5050565b600047905090565b600160009054906101000a900473ffffffffffffffffffffffffffffffffffffffff1681565b60005481565b600080fd5b6000819050919050565b6103928161037f565b811461039d57600080fd5b50565b6000813590506103af81610389565b92915050565b6000602082840312156103cb576103ca61037a565b5b60006103d9848285016103a0565b91505092915050565b6103eb8161037f565b82525050565b600060208201905061040660008301846103e2565b92915050565b600073ffffffffffffffffffffffffffffffffffffffff82169050919050565b60006104378261040c565b9050919050565b6104478161042c565b82525050565b6000602082019050610462600083018461043e565b92915050565b7f4e487b7100000000000000000000000000000000000000000000000000000000600052601160045260246000fd5b60006104a28261037f565b91507fffffffffffffffffffffffffffffffffffffffffffffffffffffffffffffffff82036104d4576104d3610468565b5b600182019050919050565b600082825260208201905092915050565b7f6f6e6c7920746865206f776e65722063616e206f6e6c7920776974686472617760008201527f2e00000000000000000000000000000000000000000000000000000000000000602082015250565b600061054c6021836104df565b9150610557826104f0565b604082019050919050565b6000602082019050818103600083015261057b8161053f565b9050919050565b7f74686520776974686472617720616d6f756e742073686f756c64206265206c6560008201527f7373207468616e20302e322065746865722e0000000000000000000000000000602082015250565b60006105de6032836104df565b91506105e982610582565b604082019050919050565b6000602082019050818103600083015261060d816105d1565b905091905056fea2646970667358221220c319f2698703dae9dafa0cc9a9b6438e1b383adb278488b90e70ef3fbda09fc264736f6c634300080e0033",
  "immutableReferences": {},
  "source": "// SPDX-License-Identifier: MIT\r\npragma solidity ^0.8.11;\r\n\r\ncontract volunteer{\r\n    uint public numoffunders;\r\n    address public owner;\r\n\r\n    mapping(uint=>address) private funders;\r\n    mapping(address=>bool) private successfunders;\r\n\r\n    constructor(){\r\n        owner = msg.sender;\r\n    }\r\n    modifier onlyOwner{\r\n        require(msg.sender == owner , \"only the owner can only withdraw.\");\r\n        _;\r\n    }\r\n\r\n    function denote() public payable{\r\n        address funder = msg.sender;\r\n        if(!successfunders[funder]){\r\n            uint indx = numoffunders++;\r\n            funders[indx] = funder;\r\n            successfunders[funder] = true;\r\n        }\r\n    }\r\n\r\n    function getContractBalance()public view returns(uint){\r\n        return address(this).balance;\r\n    }\r\n\r\n    function withdraw(uint amount) public onlyOwner{\r\n        require(amount <= 20000000000000000 ,\"the withdraw amount should be less than 0.2 ether.\");\r\n        payable(msg.sender).transfer(amount);\r\n    }\r\n\r\n    \r\n}",
  "sourcePath": "E:\\blockchain Courses\\practice\\dapp_volunteer\\my-app\\contracts\\volunteer.sol",
  "compiler": {
    "name": "solc",
    "version": "0.8.14+commit.80d49f37.Emscripten.clang"
  },
  "schemaVersion": "3.4.7",
  "updatedAt": "2022-06-09T23:29:36.600Z",
  "networkType": "ethereum",
  "devdoc": {
    "kind": "dev",
    "methods": {},
    "version": 1
  },
  "userdoc": {
    "kind": "user",
    "methods": {},
    "version": 1
  }
}